:1000000005308A00842D00000A108A100A11820728
:1000100028340C34013406340A108A100A1182077D
:100020003134323433344134343435343634423478
:1000300037343834393443342A3430342334443474
:100040000A108A100A11820700340C00D4326D386D
:10005000AE203D1000010C00D4326D382E10D21E9F
:10006000A01266102010200048308400831300087E
:10007000031948280130F800F701F70B3D28F80B69
:100080003C284A30F700F70B43284628800B3A28D3
:1000900008004F0EF039F7000F300805770488008C
:1000A000000008145328081008000808F700080E7C
:1000B0000F39F800080088100F3083160805F03853
:1000C00088008312081500000814000055207808E5
:1000D000CF00081000000814000055207808CE005A
:1000E00008100F3083160805880083124F0EF700A2
:1000F000F030F70577084E04F8007808CE00CE1BE4
:100100005C284C1C88104C18881400000811000052
:1001100008104D0ECE000F30CE054E08CF004920FE
:100120004D080F39CE00CF00492008000F3083164C
:10013000080588000810881008118312881008111B
:1001400008100F30C80034200130BA003A08033CD0
:10015000031CB2280330CF0049200530C8003420EA
:10016000BA0AA6280230CF004920BA013A08033C57
:10017000031CC3283A080420BB00CC013B08CD0077
:100180005B20BA0AB6288A110A12BD2D8A110A12FA
:10019000BE2D490BCC28CF284030CA00D028CA0138
:1001A00001304802CA074A088038CB00CC014B080E
:1001B000CD005B20080047080C3A0319E628063AF0
:1001C0000319EE28023A0319F428F928CC0101306A
:1001D000CD005B200230C8003420FF280130C80069
:1001E0000230C900C920FF28CC011030CD005B20AF
:1001F000FF280130CC004708CD005B20FF28080015
:10020000831603178C170C140000000083120C08CF
:100210007F39031944290313BA0003170D08031388
:10022000BB0003170F080313BC003A08C700DB200C
:100230003B0803178D0003133C0803178F00831638
:100240008C170C140000000083120C0D0E0D7F396A
:10025000031944290313BA0003170D080313BB0045
:1002600003170F080313BC003A08C700DB203B0844
:1002700003178D0003133C0803178F008D0A031921
:100280008F0A03130029031703130800BD01A60AF0
:100290002608213C0318A7292908FC3E03186A29CF
:1002A000043EAE29EF3083168600831286006A2949
:1002B000DF3083168600831286006A29BF308316DA
:1002C0008600831286006A297F3083168600831297
:1002D00086006A29271C762906080F390F3C031D62
:1002E000752927102808BD00A801A62906080F397E
:1002F0000F3C0319A12906080139031D8129BE01FC
:10030000952906080239031D88290130BE00952968
:1003100006080439031D8F290230BE0095290608FE
:100320000839031D95290330BE003E0DF700F70D77
:10033000FC30F705770829070C20F800A8002714DF
:10034000A629A90A2908043C0319A901A601FF301E
:100350008316860083123D08F80008000A148A10EC
:100360000A118207522958295E296429BA01BC0161
:10037000BB0146217808BA00BA08031DD429BB0A7C
:100380000319BC0A3C084E3C031CD429031DCC298C
:100390003B081F3C031CD4290330F700F70BCE2980
:1003A00046217808BA00BC293A08F8008A110A12D6
:1003B000182E8E30F7003B08F8003A08F900FA01D1
:1003C000F808031DED297908F800F9010830F70253
:1003D000F808031DED29F701F5290310F81BF4298E
:1003E000F90DF80DF703ED29F8138A110A123C2EC6
:1003F00047080319682ACF004B080319682ACF075A
:100400000318092A7F30CF02031C682A0319682ABF
:100410000D2A8130CF070318682A4F08F700F8012A
:10042000F901FA014808D300D3174908D2004A0855
:10043000D1001830CF00D001511C362A4E08FA07DF
:10044000031C282AF90A031D282AF80A0319D017C1
:100450004D08F907031C2F2AF80A0319D0174C0876
:10046000C900C9174908F8070318D017D00DF80CB0
:10047000F90CFA0CD30CD20CD10C0310CF0B1B2AA5
:100480000130F7070318682AF81B4D2AD30DFA0D1F
:10049000F90DF80DF7030319682AD31F5E2AFA0A2B
:1004A000031D5E2AF90A031D5E2AF80A031D5E2A4F
:1004B000F80CF90CFA0CF70A0319682A4808D0005E
:1004C0004C08D006D01F662AF8176C2AF8136C2A3D
:1004D000F701F801F901FA010800831603178C17D8
:1004E0000C140000000003189C2A83120C087F39AA
:1004F0000313BB0003170D080313BC0003170F08F9
:100500000313BD003B08C700DB203C0803178D0028
:1005100003133D0803178F0083168C170C1400007B
:10052000000083120313BA0B962A992A8316031725
:100530009C2ABA2A8316031783120C0D0E0D7F39DD
:100540000313BB0003170D080313BC0003170F08A8
:100550000313BD003B08C700DB203C0803178D00D8
:1005600003133D0803178F008D0A03198F0A031325
:10057000BA0B6D2A0800F701F801F901FA01CF0161
:10058000D001D101D2014E084D044C044B04031993
:10059000F92A2030D3000310C70DC80DC90DCA0DAC
:1005A000CF0DD00DD10DD20D4E085202031DE22AFF
:1005B0004D085102031DE22A4C085002031DE22A95
:1005C0004B084F02031CF32A4B08CF024C08031CB4
:1005D0004C0FD0024D08031C4D0FD1024E08031CD6
:1005E0004E0FD2020314F70DF80DF90DFA0DD30BCF
:1005F000CB2A4F308400831308000408BF003E0854
:10060000C10003191C2B3D08CA003C08C9003B0867
:10061000C8003A08C700CE01CD012030CC0082309E
:10062000CB00F8217A08BD007908BC007808BB002F
:100630007708BA00C10B032B3D08CA003C08C9006B
:100640003B08C8003A08C7004708B63CC700FA0193
:100650004808CB00C8170310C80CC90CCA0CFA0C08
:10066000F90CF80CF70CC70B2B2BCB1F422BF709FF
:10067000F809F909FA09F70A0319F80A0319F90A36
:100680000319FA0A7A08BD007908BC007808BB0093
:100690007708BA00BD1F592BBF03BF16BA09BB09A3
:1006A000BC09BD09BA0A0319BB0A0319BC0A03191C
:1006B000BD0A3B30C6009A30C500CA30C400C30131
:1006C0000A30C1003E080319BF0A3D08CA003C08B1
:1006D000C9003B08C8003A08C7004608CE004508D4
:1006E000CD004408CC004308CB00BB220008BA0070
:1006F000840A0008BB00840A0008BC00840A0008C1
:10070000BD00FD308407F708031D992B3E0A410206
:100710000319992B3F0803199B2B0F394102031929
:10072000932B0318CB2BBF1BCB2B3F1B9B2B2030BA
:10073000C72B2030BF05BF1EA92BBF123E08031DCB
:10074000BF037708BF002D30C700DB203F08F7004C
:10075000BF013E084102031DB72B7708BF002E30B2
:10076000C700DB203F08F7002030BF0500303030E5
:10077000BF1EC72BBF123E08031DBF037708BF0073
:100780002D30C700DB203F08F700BF013030F707EE
:100790007708C700DB204608CA004508C90044089E
:1007A000C8004308C700CE01CD01CC010A30CB0000
:1007B000BB227A08C6007908C5007808C40077080B
:1007C000C300C10B652B8A110A12702EC001BE0135
:1007D0000A30BF00BD01BC013A083B04031DF42BE5
:1007E0000030F800F900192D4008C00A3A078400CB
:1007F00083133B1883170008C10041082D3C031DDB
:100800000D2C0130BE004008C00A3A078400831353
:100810003B1883170008C1001A2C41082B3C031D0C
:100820001A2C4008C00A3A07840083133B18831728
:100830000008C10041082F3C03180A2D4108393C2B
:10084000031C0A2D4108303C031D462C40083A0782
:10085000840083133B1883170008783C03193A2C53
:1008600040083A07840083133B1883170008583C5C
:10087000031D462C1030BF00C00A4008C00A3A07CA
:10088000840083133B1883170008C1003F080A3C0B
:10089000031D992C41082F3C0318982C4108393C22
:1008A000031C982CC3010A30C2003D08C5003C0857
:1008B000C400430845068039C700C31F642CC20921
:1008C000C309C20A0319C30AC51F6B2CC409C50991
:1008D000C40A0319C50A1030C600F701FA01C30C97
:1008E000C20C031C792C4408F7070318FA0A4508C0
:1008F000FA07FA0CF70CF90CF80CC60B6F2CC71F93
:10090000862CF809F909F80A0319F90A303041026E
:100910007807BC007908BD000318BD0A4008C00A6A
:100920003A07840083133B1883170008C1004A2C40
:100930000A2D3F08103C031D0A2D4108603C031896
:10094000A82C41087A3C031CA82C4108DF39A92CAB
:100950004108C10041082F3C0318B22C4108393C22
:100960000318BA2C4108403C03180A2D4108463CA4
:10097000031C0A2D41082F3C0318DB2C4108393C8D
:10098000031CDB2C3C0DC2003D0DC300C20DC30D8A
:10099000C20DC30DC20DC30DF030C205303041028F
:1009A0004207F8004308FA000318FA0A7808BC0066
:1009B0007A08BD00F42C3C0DC2003D0DC300C20DF1
:1009C000C30DC20DC30DC20DC30DF030C2054130C1
:1009D00041020A3E4207F8004308FA000318FA0AE7
:1009E0007808BC007A08BD004008C00A3A078400B5
:1009F00083133B1883170008C100603C0318072DC0
:100A000041087A3C031C072D4108DF39082D4108B5
:100A1000C100AA2C3F080A3C031D152D3E0B152DC5
:100A2000BC09BD09BC0A0319BD0A3C08F8003D0811
:100A3000F9008A110A127E2E8E30F7003B08F8006A
:100A40003A08F900FA01BB1F2A2DF809F909F90A39
:100A50000319F80AF808031D372D7908F800F90181
:100A60000830F702F808031D372DF701402D031059
:100A7000F81B3E2DF90DF80DF703372DBB1FF813AA
:100A80008A110A12832E3B08C2003F08C206C21F09
:100A90004E2D03110310BB1B0314812D3B08C20014
:100AA0003E08C3003A08C30203195C2DC21F812D02
:100AB0000308013A8300812D3F08C3003B08C302AD
:100AC0000319682DC21F812D0308013A8300812D6F
:100AD0004008C3003C08C3020319742DC21F812DB6
:100AE0000308013A8300812D4108C3003D08C30279
:100AF0000319802DC21F812D0308013A8300812D27
:100B000003108A110A129C2E840183131F3083055F
:100B1000831603178711193003139900A630980024
:100B2000903083129800831603170908C039890092
:100B300003131F129F1200300317880083128701CE
:100B4000880189010313A001A101A6012710A801B2
:100B5000A901FF30B100FF308316950081130130E9
:100B600085008600003087008312B1001F179F1791
:100B700083169F1783121F149628C6282530031743
:100B80008D0000308F0003130021B5010930B00043
:100B90000130C8000230C900C920263003178D007B
:100BA00000308F00031300210130C8000230C9005B
:100BB000C920BA01BB013330840083133A0884078B
:100BC0003B082020800000380319E92DBB0ABA0A2F
:100BD000DB2D3008103C031CAA2E30080A3C031CF5
:100BE000102EB20803190F2E32082A3C0319FC2DCF
:100BF0003208233C031DFE2DB2010F2E3008C80021
:100C00000230C900C9203208C700DB203330350765
:100C10008400831332088000B50AB201B00A172E8F
:100C20003208233C031D172EB2011130B000B62943
:100C30007808B2003008103C0318252E2B3003171B
:100C40008D0000308F00031300210030F8001F08D2
:100C5000C33978049F000130C80034209F149F18C6
:100C60002F2E83161E088312AA001E08AB002B0825
:100C7000BB002A08BA00D9297A08CA007908C90035
:100C80007808C8007708C7000D30CE003230CD009C
:100C90004830CC007A30CB00F8217A08AF007908D0
:100CA000AE007808AD007708AC000130C800C9007C
:100CB000C9202C3003178D0000308F00031009303D
:100CC0000313BA006D22893084002F08BD002E085E
:100CD000BC002D08BB002C08BA000230BE00FD2A63
:100CE000313003178D0000308F00031404300313DC
:100CF000BA006D22BB013330BA00E62B7908BB0085
:100D00007808BA001C2D7A08B9007908B80078086C
:100D1000B7007708B6003908BD003808BC003708AE
:100D2000BB003608BA002F08C1002E08C0002D08ED
:100D3000BF002C08BE00432D0318A02E031DA52EB6
:100D40008316051183120515A92E8316051183122A
:080D50000511E92DC52D63001A
:04400E00F12CFF3F53
:00000001FF
;PIC16F887
;CRC=5048  CREATED="16-dic-19 11:16"
