:1000000008308A00002800000A108A100A118207AE
:1000100028340C34013406340A108A100A1182077D
:100020003134323433344134343435343634423478
:1000300037343834393443342A3430342334443474
:100040000A108A100A11820700340C00D4326D386D
:10005000AE203D1000010C00D4326D382E10D21E9F
:10006000A0126610201020004C308400831300087A
:10007000031948280130F800F701F70B3D28F80B69
:100080003C284A30F700F70B43284628800B3A28D3
:100090000800530EF039F7000F3008057704880088
:1000A000000008145328081008000808F700080E7C
:1000B0000F39F800080088100F3083160805F03853
:1000C00088008312081500000814000055207808E5
:1000D000D300081000000814000055207808D20052
:1000E00008100F308316080588008312530EF7009E
:1000F000F030F70577085204F8007808D200D21BD8
:100100005C28501C8810501888140000081100004A
:100110000810510ED2000F30D2055208D3004920EA
:1001200051080F39D200D300492008000F30831640
:10013000080588000810881008118312881008111B
:1001400008100F30CC0034200130BA003A08033CCC
:10015000031CB2280330D30049200530CC003420E2
:10016000BA0AA6280230D3004920BA013A08033C53
:10017000031CC3283A080420BB00D0013B08D1006F
:100180005B20BA0AB6288A150A123A288A150A127A
:100190003D284D0BCC28CF284030CE00D028CE01B2
:1001A00001304C02CE074E088038CF00D0014F08F6
:1001B000D1005B2008004B080C3A0319E628063AE8
:1001C0000319EE28023A0319F428F928D001013066
:1001D000D1005B200230CC003420FF280130CC005D
:1001E0000230CD00C920FF28D0011030D1005B20A3
:1001F000FF280130D0004B08D1005B20FF28080009
:10020000831603178C170C140000000083120C08CF
:100210007F39031944290313BA0003170D08031388
:10022000BB0003170F080313BC003A08CB00DB2008
:100230003B0803178D0003133C0803178F00831638
:100240008C170C140000000083120C0D0E0D7F396A
:10025000031944290313BA0003170D080313BB0045
:1002600003170F080313BC003A08CB00DB203B0840
:1002700003178D0003133C0803178F008D0A031921
:100280008F0A03130029031703130800BD01A60AF0
:100290002608213C0318A7292908FC3E03186A29CF
:1002A000043EAE29EF3083168600831286006A2949
:1002B000DF3083168600831286006A29BF308316DA
:1002C0008600831286006A297F3083168600831297
:1002D00086006A29271C762906080F390F3C031D62
:1002E000752927102808BD00A801A62906080F397E
:1002F0000F3C0319A12906080139031D8129BE01FC
:10030000952906080239031D88290130BE00952968
:1003100006080439031D8F290230BE0095290608FE
:100320000839031D95290330BE003E0DF700F70D77
:10033000FC30F705770829070C20F800A8002714DF
:10034000A629A90A2908043C0319A901A601FF301E
:100350008316860083123D08F80008000A148A10EC
:100360000A118207522958295E296429BA01BC0161
:10037000BB0146217808BA00BA08031DD429BB0A7C
:100380000319BC0A3C084E3C031CD429031DCC298C
:100390003B081F3C031CD4290330F700F70BCE2980
:1003A00046217808BA00BC293A08F8008A150A12D2
:1003B000A7288E30F7003B08F8003A08F900FA0148
:1003C000F808031DED297908F800F9010830F70253
:1003D000F808031DED29F701F5290310F81BF4298E
:1003E000F90DF80DF703ED29F8138A150A12D12833
:1003F0004B080319682AD3004F080319682AD3074A
:100400000318092A7F30D302031C682A0319682ABB
:100410000D2A8130D3070318682A5308F700F80122
:10042000F901FA014C08D700D7174D08D6004E083D
:10043000D5001830D300D401551C362A5208FA07CB
:10044000031C282AF90A031D282AF80A0319D417BD
:100450005108F907031C2F2AF80A0319D41750086A
:10046000CD00CD174D08F8070318D417D40DF80C9C
:10047000F90CFA0CD70CD60CD50C0310D30B1B2A95
:100480000130F7070318682AF81B4D2AD70DFA0D1B
:10049000F90DF80DF7030319682AD71F5E2AFA0A27
:1004A000031D5E2AF90A031D5E2AF80A031D5E2A4F
:1004B000F80CF90CFA0CF70A0319682A4C08D40056
:1004C0005008D406D41F662AF8176C2AF8136C2A31
:1004D000F701F801F901FA01080080308318BF061E
:1004E000C401C5013B08C3003F08C3063A0803190D
:1004F0005D2BC200F7003E080319662BC2020319E8
:10050000022B031CC02A3F08C800C8174008C700B8
:100510004108C600C5010310C80CC70CC60CC50CA9
:10052000C20B8A2AC31F972A44147A2B4410421004
:1005300044163D30840083138F2B4412C31BAA2A18
:10054000421CB52AC80CC70CC60CC50CF70A031907
:10055000752BB52AC81BB82A0310C50DC60DC70DCB
:10056000C80DF7030319752BAA2A4417222B44132D
:100570003B08C300C31FBE2AC8176E2BC8136E2BBF
:100580003E08C200F7003A08C2023B08C800C8177C
:100590003C08C7003D08C600C5010310C80CC70CC5
:1005A000C60CC50CC20BCC2AC31FD92AC4147A2B83
:1005B000C4104210C4164130840083138F2BC41220
:1005C000C31BEC2A421CF72AC80CC70CC60CC50C6E
:1005D000F70A0319752BF72AC81BFA2A0310C50D51
:1005E000C60DC70DC80DF7030319752BEC2AC417E8
:1005F000222BC4133F08C300C31F002BC8176E2B48
:10060000C8136E2B3F08C800C8174008C700410830
:10061000C600C31F0F2BC81344157A2B4411C50104
:1006200042103D30840083138F2BC31B382B3B08B3
:10063000C300421C222BC80CC70CC60CC50CF70A01
:100640000319752BC51F332BC60A031D332BC70A8D
:10065000031D332BC80A031D332BC80CC70CC60C53
:10066000F70A0319752B441BB72AC41BF92A572B09
:100670008030C806C81F402B7A2B3F08C3004D2B83
:100680003B08C300C808031D4D2BC708031D4D2B95
:10069000C608031D4D2BF7016E2BC81B572B0310EB
:1006A000C50DC60DC70DC80DF70B4D2B752BC31F00
:1006B0005B2BC8176E2BC8136E2B3E08F7003F0844
:1006C000C8004008C7004108C6006E2B3A08F70072
:1006D0003B08C8003C08C7003D08C6004808F800B1
:1006E0004708F9004608FA00AD2BF701F801F901B7
:1006F000FA01AD2BC501C609C709C809C509C50A54
:10070000031D882BC60A031D882BC70A0319C80AB4
:100710004418962AC418D82A44190E2B3D2B0008D9
:10072000C607031C992BC70A031D992BC80A031976
:10073000421484030008C707031CA12BC80A03192D
:10074000421484030008801F803AC807031842142B
:10075000441A9D2AC41ADF2A152B8A150A12042965
:10076000831603178C170C14000000000318DF2BEE
:1007700083120C087F390313BF0003170D080313FE
:10078000C00003170F080313C1003F08CB00DB2094
:10079000400803178D000313410803178F008316C9
:1007A0008C170C140000000083120313BE0BD92B0E
:1007B000DC2B83160317DF2BFD2B83160317831205
:1007C0000C0D0E0D7F390313BF0003170D08031323
:1007D000C00003170F080313C1003F08CB00DB2044
:1007E000400803178D000313410803178F008D0A7B
:1007F00003198F0A0313BE0BB02B0800F701F80191
:10080000F901FA01D301D401D501D60152085104EE
:1008100050044F0403193C2C2030D7000310CB0D9B
:10082000CC0DCD0DCE0DD30DD40DD50DD60D52085A
:100830005602031D252C51085502031D252C500876
:100840005402031D252C4F085302031C362C4F085D
:10085000D3025008031C500FD4025108031C510F3F
:10086000D5025208031C520FD6020314F70DF80DDF
:10087000F90DFA0DD70B0E2C5330840083130800AA
:100880000408C3004208C50003195F2C4108CE00CC
:100890004008CD003F08CC003E08CB00D201D1017A
:1008A0002030D0008230CF00F8217A08C1007908CA
:1008B000C0007808BF007708BE00C50B462C410871
:1008C000CE004008CD003F08CC003E08CB004B08CE
:1008D000B63CCB00FA014C08CF00CC170310CC0C6F
:1008E000CD0CCE0CFA0CF90CF80CF70CCB0B6E2CD3
:1008F000CF1F852CF709F809F909FA09F70A031936
:10090000F80A0319F90A0319FA0A7A08C1007908E2
:10091000C0007808BF007708BE00C11F9C2CC3032D
:10092000C316BE09BF09C009C109BE0A0319BF0A1F
:100930000319C00A0319C10A3B30CA009A30C90022
:10094000CA30C800C7010A30C50042080319C30AEB
:100950004108CE004008CD003F08CC003E08CB0047
:100960004A08D2004908D1004808D0004708CF0003
:10097000FE230008BE00840A0008BF00840A0008A5
:10098000C000840A0008C100FD308407F708031D79
:10099000DC2C420A45020319DC2C43080319DE2C27
:1009A0000F3945020319D62C03180E2DC31B0E2D2B
:1009B000431BDE2C20300A2D2030C305C31EEC2C37
:1009C000C3124208031DC3037708C3002D30CB00B8
:1009D000DB204308F700C30142084502031DFA2C3F
:1009E0007708C3002E30CB00DB204308F70020300F
:1009F000C30500303030C31E0A2DC3124208031D48
:100A0000C3037708C3002D30CB00DB204308F70079
:100A1000C3013030F7077708CB00DB204A08CE004F
:100A20004908CD004808CC004708CB00D201D101CD
:100A3000D0010A30CF00FE237A08CA007908C90025
:100A40007808C8007708C700C50BA82C8A150A12B9
:100A50002729C001BE010A30BF00BD01BC013A0810
:100A60003B04031D372D0030F800F9005C2E4008D0
:100A7000C00A3A07840083133B1883170008C1009B
:100A800041082D3C031D502D0130BE004008C00A16
:100A90003A07840083133B1883170008C1005D2DBB
:100AA00041082B3C031D5D2D4008C00A3A07840015
:100AB00083133B1883170008C10041082F3C03181B
:100AC0004D2E4108393C031C4D2E4108303C031D7E
:100AD000892D40083A07840083133B1883170008C8
:100AE000783C03197D2D40083A07840083133B1896
:100AF00083170008583C031D892D1030BF00C00A21
:100B00004008C00A3A07840083133B188317000883
:100B1000C1003F080A3C031DDC2D41082F3C03188F
:100B2000DB2D4108393C031CDB2DC3010A30C20018
:100B30003D08C5003C08C400430845068039C7008D
:100B4000C31FA72DC209C309C20A0319C30AC51FBF
:100B5000AE2DC409C509C40A0319C50A1030C60060
:100B6000F701FA01C30CC20C031CBC2D4408F707A3
:100B70000318FA0A4508FA07FA0CF70CF90CF80CF6
:100B8000C60BB22DC71FC92DF809F909F80A0319B8
:100B9000F90A303041027807BC007908BD0003181B
:100BA000BD0A4008C00A3A07840083133B18831724
:100BB0000008C1008D2D4D2E3F08103C031D4D2E09
:100BC0004108603C0318EB2D41087A3C031CEB2DD7
:100BD0004108DF39EC2D4108C10041082F3C0318C2
:100BE000F52D4108393C0318FD2D4108403C031800
:100BF0004D2E4108463C031C4D2E41082F3C031846
:100C00001E2E4108393C031C1E2E3C0DC2003D0D1A
:100C1000C300C20DC30DC20DC30DC20DC30DF03014
:100C2000C205303041024207F8004308FA000318B9
:100C3000FA0A7808BC007A08BD00372E3C0DC200C5
:100C40003D0DC300C20DC30DC20DC30DC20DC30DBA
:100C5000F030C205413041020A3E4207F800430825
:100C6000FA000318FA0A7808BC007A08BD004008A8
:100C7000C00A3A07840083133B1883170008C10099
:100C8000603C03184A2E41087A3C031C4A2E410856
:100C9000DF394B2E4108C100ED2D3F080A3C031DF2
:100CA000582E3E0B582EBC09BD09BC0A0319BD0ABB
:100CB0003C08F8003D08F9008A150A1239298E30DF
:100CC000F7003B08F8003A08F900FA01BB1F6D2E47
:100CD000F809F909F90A0319F80AF808031D7A2E28
:100CE0007908F800F9010830F702F808031D7A2E98
:100CF000F701832E0310F81B812EF90DF80DF70371
:100D00007A2EBB1FF8138A150A1240293B08C2002D
:100D10003F08C206C21F912E03110310BB1B031410
:100D2000C42E3B08C2003E08C3003A08C3020319A0
:100D30009F2EC21FC42E0308013A8300C42E3F0811
:100D4000C3003B08C3020319AB2EC21FC42E030805
:100D5000013A8300C42E4008C3003C08C3020319B3
:100D6000B72EC21FC42E0308013A8300C42E4108C7
:100D7000C3003D08C3020319C32EC21FC42E0308BB
:0E0D8000013A8300C42E03108A150A125B2963
:10100000840183131F30830583160317871119305A
:1010100003139900A630980090308312980083162D
:1010200003170908C039890003131F129F120030EB
:101030000317880083128701880189010313A00127
:10104000A101A6012710A801A901FF30B100FF30BE
:1010500083169500811301308500860000308700DB
:101060008312B1001F179F1783169F1783121F1437
:101070008A1196288A158A11C6288A1525300317E1
:101080008D0000308F008A11031300218A15B501ED
:101090000930B0000130CC000230CD008A11C920E7
:1010A0008A15263003178D0000308F008A11031334
:1010B00000218A150130CC000230CD008A11C920F0
:1010C0008A15BA01BB013330840083133A088407C0
:1010D0003B088A1120208A158000003803197328E4
:1010E000BB0ABA0A63283008103C031C7229300876
:1010F0000A3C031C9E28B20803199D2832082A3C8A
:10110000031986283208233C031D8828B2019D2834
:101110003008CC000230CD008A11C9208A1532086F
:10112000CB008A11DB208A15333035078400831306
:1011300032088000B50AB201B00AA5283208233C63
:10114000031DA528B2011130B0008A11B6298A15F5
:101150007808B2003008103C0318B7282B3003176A
:101160008D0000308F008A11031300218A15003092
:10117000F8001F08C33978049F000130CC008A11A1
:1011800034208A159F149F18C32883161E088312C3
:10119000AA001E08AB002B08BB002A08BA008A115F
:1011A000D9298A157A08CE007908CD007808CC00B4
:1011B0007708CB000D30D2003230D1004830D0005B
:1011C0007A30CF008A11F8218A157A08AF007908A1
:1011D000AE007808AD007708AC000130CC00CD003F
:1011E0008A11C9208A1583102F08BD002E08BC0063
:1011F0002D08BB002C08BA00C101C0014830BF0057
:101200008330BE008A116D2A8A157708BA007808E3
:10121000BB007908BC007A08BD002C3003178D0094
:1012200000308F00031009300313BE008A11B02371
:101230008A15893084003D08C1003C08C0003B0885
:10124000BF003A08BE000230C2008A11402C8A1545
:10125000313003178D0000308F0003140430031366
:10126000BE008A11B0238A15BB013330BA008A113F
:10127000292D8A157908BB007808BA008A115F2EDB
:101280008A157A08B9007908B8007808B700770895
:10129000B6003908BD003808BC003708BB00360866
:1012A000BA002F08C1002E08C0002D08BF002C086E
:1012B000BE008A11862E8A1503186029031D69292C
:1012C0008316851183128515831605118312051562
:1012D00071298316851183128511831605118312D6
:0812E000051173284728630083
:04400E00F12CFF3F53
:00000001FF
;PIC16F887
;CRC=694D  CREATED="19-dic-19 20:55"
