:1000000005308A00A12D00000A108A100A1182070B
:1000100028340C34013406340A108A100A1182077D
:100020003134323433344134343435343634423478
:1000300037343834393443342A3430342334443474
:100040000A108A100A11820700340C00D4326D386D
:100050002E10C11E20000C00D4326D382E10D21E7E
:10006000A0126610201020004A308400831300087C
:10007000031948280130F800F701F70B3D28F80B69
:100080003C284A30F700F70B43284628800B3A28D3
:100090000800510EF039F7000F300805770488008A
:1000A000000008145328081008000808F700080E7C
:1000B0000F39F800080088100F3083160805F03853
:1000C00088008312081500000814000055207808E5
:1000D000D100081000000814000055207808D00056
:1000E00008100F308316080588008312510EF700A0
:1000F000F030F70577085004F8007808D000D01BDE
:100100005C284E1C88104E1888140000081100004E
:1001100008104F0ED0000F30D0055008D1004920F4
:100120004F080F39D000D100492008000F30831646
:10013000080588000810881008118312881008111B
:1001400008100F30CA0034200130BC003C08033CCA
:10015000031CB2280330D10049200530CA003420E6
:10016000BC0AA6280230D1004920BC013C08033C4F
:10017000031CC3283C080420BD00CE013D08CF006D
:100180005B20BC0AB6288A110A12DA2D8A110A12DB
:10019000DB2D4B0BCC28CF284030CC00D028CC0115
:1001A00001304A02CC074C088038CD00CE014D0802
:1001B000CF005B20080049080C3A0319E628063AEC
:1001C0000319EE28023A0319F428F928CE01013068
:1001D000CF005B200230CA003420FF280130CA0063
:1001E0000230CB00C920FF28CE011030CF005B20A9
:1001F000FF280130CE004908CF005B20FF2808000F
:10020000831603178C170C140000000083120C08CF
:100210007F39031944290313BC0003170D08031386
:10022000BD0003170F080313BE003C08C900DB2004
:100230003D0803178D0003133E0803178F00831634
:100240008C170C140000000083120C0D0E0D7F396A
:10025000031944290313BC0003170D080313BD0041
:1002600003170F080313BE003C08C900DB203D083C
:1002700003178D0003133E0803178F008D0A03191F
:100280008F0A03130029031703130800BF01A60AEE
:100290002608213C0318A7292908FC3E03186A29CF
:1002A000043EAE29EF3083168600831286006A2949
:1002B000DF3083168600831286006A29BF308316DA
:1002C0008600831286006A297F3083168600831297
:1002D00086006A29271C762906080F390F3C031D62
:1002E000752927102808BF00A801A62906080F397C
:1002F0000F3C0319A12906080139031D8129C001FA
:10030000952906080239031D88290130C000952966
:1003100006080439031D8F290230C00095290608FC
:100320000839031D95290330C000400DF700F70D73
:10033000FC30F705770829070C20F800A8002714DF
:10034000A629A90A2908043C0319A901A601FF301E
:100350008316860083123F08F80008000A148A10EA
:100360000A118207522958295E296429BC01BE015D
:10037000BD0146217808BC00BC08031DD429BD0A74
:100380000319BE0A3E084E3C031CD429031DCC2988
:100390003D081F3C031CD4290330F700F70BCE297E
:1003A00046217808BC00BC293C08F8008A110A12D2
:1003B000352E8E30F7003D08F8003C08F900FA01B0
:1003C000F808031DED297908F800F9010830F70253
:1003D000F808031DED29F701F5290310F81BF4298E
:1003E000F90DF80DF703ED29F8138A110A12592EA9
:1003F00049080319682AD1004D080319682AD10752
:100400000318092A7F30D102031C682A0319682ABD
:100410000D2A8130D1070318682A5108F700F80126
:10042000F901FA014A08D500D5174B08D4004C0849
:10043000D3001830D100D201531C362A5008FA07D5
:10044000031C282AF90A031D282AF80A0319D217BF
:100450004F08F907031C2F2AF80A0319D2174E0870
:10046000CB00CB174B08F8070318D217D20DF80CA6
:10047000F90CFA0CD50CD40CD30C0310D10B1B2A9D
:100480000130F7070318682AF81B4D2AD50DFA0D1D
:10049000F90DF80DF7030319682AD51F5E2AFA0A29
:1004A000031D5E2AF90A031D5E2AF80A031D5E2A4F
:1004B000F80CF90CFA0CF70A0319682A4A08D2005A
:1004C0004E08D206D21F662AF8176C2AF8136C2A37
:1004D000F701F801F901FA010800831603178C17D8
:1004E0000C140000000003189C2A83120C087F39AA
:1004F0000313BD0003170D080313BE0003170F08F5
:100500000313BF003D08C900DB203E0803178D0020
:1005100003133F0803178F0083168C170C14000079
:10052000000083120313BC0B962A992A8316031723
:100530009C2ABA2A8316031783120C0D0E0D7F39DD
:100540000313BD0003170D080313BE0003170F08A4
:100550000313BF003D08C900DB203E0803178D00D0
:1005600003133F0803178F008D0A03198F0A031323
:10057000BC0B6D2A0800F701F801F901FA01D1015D
:10058000D201D301D40150084F044E044D04031985
:10059000F92A2030D5000310C90DCA0DCB0DCC0DA2
:1005A000D10DD20DD30DD40D50085402031DE22AF3
:1005B0004F085302031DE22A4E085202031DE22A8D
:1005C0004D085102031CF32A4D08D1024E08031CAA
:1005D0004E0FD2024F08031C4F0FD3025008031CCA
:1005E000500FD4020314F70DF80DF90DFA0DD50BC9
:1005F000CB2A51308400831308000408C10040084E
:10060000C30003191C2B3F08CC003E08CB003D085B
:10061000CA003C08C900D001CF012030CE00823092
:10062000CD00F8217A08BF007908BE007808BD0027
:100630007708BC00C30B032B3F08CC003E08CB005F
:100640003D08CA003C08C9004908B63CC900FA0187
:100650004A08CD00CA170310CA0CCB0CCC0CFA0CFC
:10066000F90CF80CF70CC90B2B2BCD1F422BF709FB
:10067000F809F909FA09F70A0319F80A0319F90A36
:100680000319FA0A7A08BF007908BE007808BD008D
:100690007708BC00BF1F592BC103C116BC09BD0997
:1006A000BE09BF09BC0A0319BD0A0319BE0A031912
:1006B000BF0A3B30C8009A30C700CA30C600C50127
:1006C0000A30C30040080319C10A3F08CC003E08A5
:1006D000CB003D08CA003C08C9004808D0004708C4
:1006E000CF004608CE004508CD00BB220008BC0064
:1006F000840A0008BD00840A0008BE00840A0008BD
:10070000BF00FD308407F708031D992B400A430200
:100710000319992B410803199B2B0F394302031925
:10072000932B0318CB2BC11BCB2B411B9B2B2030B6
:10073000C72B2030C105C11EA92BC1124008031DC3
:10074000C1037708C1002D30C900DB204108F70044
:10075000C10140084302031DB72B7708C1002E30AA
:10076000C900DB204108F7002030C10500303030DF
:10077000C11EC72BC1124008031DC1037708C10069
:100780002D30C900DB204108F700C1013030F707E8
:100790007708C900DB204808CC004708CB00460892
:1007A000CA004508C900D001CF01CE010A30CD00F2
:1007B000BB227A08C8007908C7007808C600770805
:1007C000C500C30B652B8A110A128C2EC201C00111
:1007D0000A30C100BF01BE013C083D04031DF42BDB
:1007E0000030F800F900192D4208C20A3C078400C5
:1007F00083133D1883170008C30043082D3C031DD5
:100800000D2C0130C0004208C20A3C07840083134B
:100810003D1883170008C3001A2C43082B3C031D06
:100820001A2C4208C20A3C07840083133D18831720
:100830000008C30043082F3C03180A2D4308393C25
:10084000031C0A2D4308303C031D462C42083C077C
:10085000840083133D1883170008783C03193A2C51
:1008600042083C07840083133D1883170008583C56
:10087000031D462C1030C100C20A4208C20A3C07C0
:10088000840083133D1883170008C30041080A3C05
:10089000031D992C43082F3C0318982C4308393C1E
:1008A000031C982CC5010A30C4003F08C7003E084D
:1008B000C600450847068039C900C51F642CC40915
:1008C000C509C40A0319C50AC71F6B2CC609C70985
:1008D000C60A0319C70A1030C800F701FA01C50C8F
:1008E000C40C031C792C4608F7070318FA0A4708BA
:1008F000FA07FA0CF70CF90CF80CC80B6F2CC91F8F
:10090000862CF809F909F80A0319F90A303043026C
:100910007807BE007908BF000318BF0A4208C20A60
:100920003C07840083133D1883170008C3004A2C3A
:100930000A2D4108103C031D0A2D4308603C031892
:10094000A82C43087A3C031CA82C4308DF39A92CA7
:100950004308C30043082F3C0318B22C4308393C1A
:100960000318BA2C4308403C03180A2D4308463CA0
:10097000031C0A2D43082F3C0318DB2C4308393C89
:10098000031CDB2C3E0DC4003F0DC500C40DC50D7E
:10099000C40DC50DC40DC50DF030C4053030430283
:1009A0004407F8004508FA000318FA0A7808BE0060
:1009B0007A08BF00F42C3E0DC4003F0DC500C40DE5
:1009C000C50DC40DC50DC40DC50DF030C4054130B5
:1009D00043020A3E4407F8004508FA000318FA0AE1
:1009E0007808BE007A08BF004208C20A3C078400AB
:1009F00083133D1883170008C300603C0318072DBC
:100A000043087A3C031C072D4308DF39082D4308AF
:100A1000C300AA2C41080A3C031D152D400B152DBF
:100A2000BE09BF09BE0A0319BF0A3E08F8003F0805
:100A3000F9008A110A129A2E8E30F7003D08F8004C
:100A40003C08F900FA01BD1F2A2DF809F909F90A35
:100A50000319F80AF808031D372D7908F800F90181
:100A60000830F702F808031D372DF701402D031059
:100A7000F81B3E2DF90DF80DF703372DBD1FF813A8
:100A80008A110A129F2E8E30F7003C08F7023D08AB
:100A9000F9003E08F800F917F70803195A2D03105A
:100AA000F908031D562DF80803195A2DF90CF80CF6
:100AB000F70B4F2DBD1F612DF809F909F80A03192D
:100AC000F90A08003D08C4004108C406C41F6D2D82
:100AD00003110310BD1B0314A02D3D08C4004008E2
:100AE000C5003C08C50203197B2DC41FA02D0308B7
:100AF000013A8300A02D4108C5003D08C502031935
:100B0000872DC41FA02D0308013A8300A02D4208A1
:100B1000C5003E08C5020319932DC41FA02D03086C
:100B2000013A8300A02D4308C5003F08C502031900
:100B30009F2DC41FA02D0308013A8300A02D031090
:100B40000800840183131F30830583160317871160
:100B5000193003139900A630980090308312980042
:100B6000831603170908C039890003131F129F1247
:100B7000003003178800831287018801890103135D
:100B8000A001A101A6012710A801A901FF30B10011
:100B9000FF308316950081130130850086000030F8
:100BA00087008312B1001F179F1783169F178312A8
:100BB0001F149628C628253003178D0000308F009B
:100BC00003130021B7010930B0000130CA00023020
:100BD000CB00C920263003178D0000308F0003138F
:100BE00000210130CA000230CB00C920BC01BD0188
:100BF0003330840083133C0884073D0820208000A4
:100C000000380319062EBD0ABC0AF82D3008103C26
:100C1000031C0C2F30080A3C031C2D2EB2080319AC
:100C20002C2E32082A3C0319192E3208233C031DAE
:100C30001B2EB2012C2E3008CA000230CB00C92076
:100C40003208C900DB2033303707840083133208B1
:100C50008000B70AB201B00A342E3208233C031DCB
:100C6000342EB2011130B000B6297808B200300835
:100C7000103C0318422E2B3003178D0000308F00DC
:100C8000031300210030F8001F08C33978049F00C7
:100C90000130CA0034209F149F184C2E83161E0862
:100CA0008312AA001E08AB002B08BD002A08BC0056
:100CB000D9297A08CC007908CB007808CA007708CF
:100CC000C9009E30D000CF007030CE007A30CD0009
:100CD000F8217A08AF007908AE007808AD007708EF
:100CE000AC000130CA00CB00C9202C3003178D00A6
:100CF00000308F00031009300313BC006D228930CF
:100D000084002F08BF002E08BE002D08BD002C084F
:100D1000BC000230C000FD2A313003178D000030C6
:100D20008F00031404300313BC006D22BD01333067
:100D3000BC00E62B7908BD007808BC001C2D7A08A1
:100D4000BB007908BA007808B9007708B8003B08FA
:100D5000BF003A08BE003908BD003808BC00432572
:100D60007808B5002F08BF002E08BE002D08BD0072
:100D70002C08BC0043257808B6000230360735023F
:100D80000319CB2E0230360235020319CB2E36085A
:100D90003502031DD42E8316851183128511831607
:100DA0000511831205150B2F3B08BF003A08BE0042
:100DB0003908BD003808BC002F08C3002E08C20047
:100DC0002D08C1002C08C0006225031CF02E8316DC
:100DD00085118312851583160511831205150B2FB6
:100DE0002F08BF002E08BE002D08BD002C08BC0037
:100DF0003B08C3003A08C2003908C1003808C000E7
:100E00006225031C0B2F831685118312851183160F
:0C0E1000051183120511062EE22D63006F
:04400E00F12CFF3F53
:00000001FF
;PIC16F887
;CRC=DDCE  CREATED="22-dic-19 10:25"
