:1000000005308A00C02D00000A108A100A118207EC
:1000100028340C34013406340A108A100A1182077D
:100020003134323433344134343435343634423478
:1000300037343834393443342A3430342334443474
:100040000A108A100A11820700340C00D4326D386D
:10005000AE203D1000010C00D4326D382E10D21E9F
:10006000A012661020102000D4326D382E10D21E3F
:10007000A0126610201020004C308400831300086A
:10008000031950280130F800F701F70B4528F80B49
:1000900044284A30F700F70B4B284E28800B4228A3
:1000A0000800530EF039F7000F3008057704880078
:1000B000000008145B28081008000808F700080E64
:1000C0000F39F800080088100F3083160805F03843
:1000D0008800831208150000081400005D207808CD
:1000E000D30008100000081400005D207808D2003A
:1000F00008100F308316080588008312530EF7008E
:10010000F030F70577085204F8007808D200D21BC7
:100110006428501C88105018881400000811000032
:100120000810510ED2000F30D2055208D3005120D2
:1001300051080F39D200D300512008000F30831628
:10014000080588000810881008118312881008110B
:1001500008100F30CC003C200130BE003E08033CAC
:10016000031CBA280330D30051200530CC003C20BA
:10017000BE0AAE280230D3005120BE013E08033C27
:10018000031CCB283E080420BF00D0013F08D1004B
:100190006320BE0ABE288A110A12F92D8A110A129A
:1001A000FA2D4D0BD428D7284030CE00D828CE01C8
:1001B00001304C02CE074E088038CF00D0014F08E6
:1001C000D100632008004B080C3A0319EE28063AC8
:1001D0000319F628023A0319FC280129D00101303D
:1001E000D10063200230CC003C2007290130CC0034
:1001F0000230CD00D1200729D0011030D10063207A
:1002000007290130D0004B08D100632007290800DE
:10021000831603178C170C140000000083120C08BF
:100220007F3903194C290313BE0003170D0803136C
:10023000BF0003170F080313C0003E08CB00E320E4
:100240003F0803178D000313400803178F00831620
:100250008C170C140000000083120C0D0E0D7F395A
:1002600003194C290313BE0003170D080313BF0025
:1002700003170F080313C0003E08CB00E3203F081C
:1002800003178D000313400803178F008D0A03190D
:100290008F0A03130829031703130800C101A60AD4
:1002A0002608213C0318AF292908FC3E03187229AF
:1002B000043EB629EF308316860083128600722929
:1002C000DF3083168600831286007229BF308316C2
:1002D00086008312860072297F308316860083127F
:1002E00086007229271C7E2906080F390F3C031D42
:1002F0007D2927102808C100A801AE2906080F395A
:100300000F3C0319A92906080139031D8929C201D7
:100310009D2906080239031D90290130C2009D293C
:1003200006080439031D97290230C2009D290608DA
:100330000839031D9D290330C200420DF700F70D57
:10034000FC30F705770829070C20F800A8002714CF
:10035000AE29A90A2908043C0319A901A601FF3006
:100360008316860083124108F80008000A148A10D8
:100370000A1182075A29602966296C29BE01C00129
:10038000BF014E217808BE00BE08031DDC29BF0A4C
:100390000319C00A40084E3C031CDC29031DD42964
:1003A0003F081F3C031CDC290330F700F70BD6295C
:1003B0004E217808BE00C4293E08F8008A110A12AE
:1003C000542E1030C200F701FA01BF0CBE0C031C02
:1003D000EF294008F7070318FA0A4108FA07FA0C50
:1003E000F70CF90CF80CC20BE5290800F801F9012B
:1003F000F701FA014308031D002A420803191A2ACB
:100400001030C4000310C00DC10DF70DFA0D4308E4
:100410007A02031D0D2A42087702031C162A42089D
:10042000F702031CFA034308FA020314F80DF90D4E
:10043000C40B022A08008E30F7003F08F8003E087F
:10044000F900FA01F808031D2F2A7908F800F901CC
:100450000830F702F808031D2F2AF701372A031086
:10046000F81B362AF90DF80DF7032F2AF8130800A8
:10047000831603178C170C14000000000318672A5A
:1004800083120C087F390313BF0003170D080313F1
:10049000C00003170F080313C1003F08CB00E3207F
:1004A000400803178D000313410803178F008316BC
:1004B0008C170C140000000083120313BE0B612A7A
:1004C000642A83160317672A852A83160317831263
:1004D0000C0D0E0D7F390313BF0003170D08031316
:1004E000C00003170F080313C1003F08CB00E3202F
:1004F000400803178D000313410803178F008D0A6E
:1005000003198F0A0313BE0B382A0800F701F801FC
:10051000F901FA01D301D401D501D60152085104E1
:1005200050044F040319C42A2030D7000310CB0D08
:10053000CC0DCD0DCE0DD30DD40DD50DD60D52084D
:100540005602031DAD2A51085502031DAD2A50085D
:100550005402031DAD2A4F085302031CBE2A4F0844
:10056000D3025008031C500FD4025108031C510F32
:10057000D5025208031C520FD6020314F70DF80DD2
:10058000F90DFA0DD70B962A533084008313080017
:100590000408C3004208C50003195A2B4108CE00C5
:1005A0004008CD003F08CC003E08CB00D201D1016D
:1005B0002030D0008230CF004B0803194C2BD300E1
:1005C0004F0803194C2BD3070318ED2A7F30D302B1
:1005D000031C4C2B03194C2BF12A8130D307031831
:1005E0004C2B5308F700F801F901FA014C08D70029
:1005F000D7174D08D6004E08D5001830D300D401C7
:10060000551C1A2B5208FA07031C0C2BF90A031D60
:100610000C2BF80A0319D4175108F907031C132BE4
:10062000F80A0319D4175008CD00CD174D08F80764
:100630000318D417D40DF80CF90CFA0CD70CD60CFF
:10064000D50C0310D30BFF2A0130F70703184C2BEE
:10065000F81B312BD70DFA0DF90DF80DF70303191F
:100660004C2BD71F422BFA0A031D422BF90A031DFC
:10067000422BF80A031D422BF80CF90CFA0CF70A6E
:1006800003194C2B4C08D4005008D406D41F4A2B15
:10069000F817502BF813502BF701F801F901FA0164
:1006A0007A08C1007908C0007808BF007708BE004A
:1006B000C50BCE2A4108CE004008CD003F08CC0033
:1006C0003E08CB004B08B63CCB00FA014C08CF00EB
:1006D000CC170310CC0CCD0CCE0CFA0CF90CF80C8A
:1006E000F70CCB0B692BCF1F802BF709F809F90901
:1006F000FA09F70A0319F80A0319F90A0319FA0A99
:100700007A08C1007908C0007808BF007708BE00E9
:10071000C11F972BC303C316BE09BF09C009C10976
:10072000BE0A0319BF0A0319C00A0319C10A3B30E4
:10073000CA009A30C900CA30C800C7010A30C500D3
:1007400042080319C30A4108CE004008CD003F0803
:10075000CC003E08CB004A08D2004908D100480826
:10076000D0004708CF0086220008BE00840A000897
:10077000BF00840A0008C000840A0008C100FD30E0
:100780008407F708031DD72B420A45020319D72B0C
:1007900043080319D92B0F3945020319D12B03182C
:1007A000092CC31B092C431BD92B2030052C2030CE
:1007B000C305C31EE72BC3124208031DC3037708FA
:1007C000C3002D30CB00E3204308F700C3014208EB
:1007D0004502031DF52B7708C3002E30CB00E32024
:1007E0004308F7002030C30500303030C31E052C0D
:1007F000C3124208031DC3037708C3002D30CB008A
:10080000E3204308F700C3013030F7077708CB0037
:10081000E3204A08CE004908CD004808CC0047082C
:10082000CB00D201D101D0010A30CF0086227A0854
:10083000CA007908C9007808C8007708C700C50B46
:10084000A32B0800C401C2010A30C300C101C001CA
:100850003E083F04031D302C0030F800F900552DF0
:100860004408C40A3E07840083133F188317000816
:10087000C50045082D3C031D492C0130C200440829
:10088000C40A3E07840083133F1883170008C5007D
:10089000562C45082B3C031D562C4408C40A3E0721
:1008A000840083133F1883170008C50045082F3CB8
:1008B0000318462D4508393C031C462D4508303C9D
:1008C000031D822C44083E07840083133F188317BE
:1008D0000008783C0319762C44083E0784008313F3
:1008E0003F1883170008583C031D822C1030C300AA
:1008F000C40A4408C40A3E07840083133F188317C0
:100900000008C50043080A3C031DD52C45082F3CB0
:100910000318D42C4508393C031CD42CC7010A30D9
:10092000C6004108C9004008C80047084906803988
:10093000CB00C71FA02CC609C709C60A0319C70ADE
:10094000C91FA72CC809C909C80A0319C90A103048
:10095000CA00F701FA01C70CC60C031CB52C4808E5
:10096000F7070318FA0A4908FA07FA0CF70CF90C0A
:10097000F80CCA0BAB2CCB1FC22CF809F909F80AEA
:100980000319F90A303045027807C0007908C10020
:100990000318C10A4408C40A3E07840083133F18A1
:1009A00083170008C500862C462D4308103C031D04
:1009B000462D4508603C0318E42C45087A3C031C8E
:1009C000E42C4508DF39E52C4508C50045082F3CD7
:1009D0000318EE2C4508393C0318F62C4508403C1A
:1009E0000318462D4508463C031C462D45082F3C60
:1009F0000318172D4508393C031C172D400DC60060
:100A0000410DC700C60DC70DC60DC70DC60DC70DDC
:100A1000F030C605303045024607F8004708FA00B6
:100A20000318FA0A7808C0007A08C100302D400D7A
:100A3000C600410DC700C60DC70DC60DC70DC60DBA
:100A4000C70DF030C605413045020A3E4607F800A2
:100A50004708FA000318FA0A7808C0007A08C100AB
:100A60004408C40A3E07840083133F188317000814
:100A7000C500603C0318432D45087A3C031C432DF8
:100A80004508DF39442D4508C500E62C43080A3CDB
:100A9000031D512D420B512DC009C109C00A031974
:100AA000C10A4008F8004108F9008A110A12432FD0
:100AB0008E30F7003F08F8003E08F900FA01BF1F2A
:100AC000662DF809F909F90A0319F80AF808031D4F
:100AD000732D7908F800F9010830F702F808031DB2
:100AE000732DF7017C2D0310F81B7A2DF90DF80DED
:100AF000F703732DBF1FF8138A110A12482F3F08FE
:100B0000C6004308C606C61F8A2D03110310BF1B6B
:100B10000314BD2D3F08C6004208C7003E08C702A7
:100B20000319982DC61FBD2D0308013A8300BD2D62
:100B30004308C7003F08C7020319A42DC61FBD2DD7
:100B40000308013A8300BD2D4408C7004008C702CE
:100B50000319B02DC61FBD2D0308013A8300BD2D1A
:100B60004508C7004108C7020319BC2DC61FBD2D8B
:100B70000308013A8300BD2D03108A110A12612F68
:100B8000840183131F3083058316031787111930DF
:100B900003139900A63098009030831298008316B2
:100BA00003170908C039890003131F129F12003070
:100BB0000317880083128701880189010313A001AC
:100BC000A101A6012710A801A901FF30B500FF303F
:100BD0008316950081130130850086000030870060
:100BE0008312B5001F179F1783169F1783121F14B8
:100BF0009E28CE28253003178D0000308F00031368
:100C00000821B9010930B4000130CC000230CD0018
:100C1000D120263003178D0000308F0003130821E8
:100C20000130CC000230CD00D120BE01BF013730F1
:100C3000840083133E0884073F082020800000388A
:100C40000319252EBF0ABE0A172E3408103C031CB8
:100C5000772F34080A3C031C4C2EB60803194B2E80
:100C600036082A3C0319382E3608233C031D3A2E39
:100C7000B6014B2E3408CC000230CD00D12036080E
:100C8000CB00E32037303907840083133608800017
:100C9000B90AB601B40A532E3608233C031D532E5D
:100CA000B6011130B400BE297808B6003408103CF3
:100CB0000318612E2B3003178D0000308F000313B3
:100CC00008210030F8001F08C33978049F00033062
:100CD000F700F70B692E9F149F186C2E83161E08C1
:100CE0008312B0001E08B1000430F8001F08C33999
:100CF00078049F000330F700F70B7C2E9F149F1899
:100D00007F2E83161E088312B2001E08B30033081C
:100D10003102031CE32E031D912E3008320203180A
:100D2000E32E32083002AA003108AB003308031C5E
:100D3000330FAB022B08BF002A08BE00C1013230BE
:100D4000C000E1217908BF007808BE007908C10021
:100D50007808C0000330C300FF30C200F6217908D4
:100D6000FA007808BE007908BF001B227A08AF009D
:100D70007908AE007808AD007708AC000130CC00EF
:100D8000CD00D1202C3003178D0000308F000310D0
:100D900009300313BE003822893084002F08C100B7
:100DA0002E08C0002D08BF002C08BE000230C20073
:100DB000C822313003178D0000308F000314043037
:100DC0000313BE00382231083302031C3F2F031DDA
:100DD000ED2E3208300203183F2F30083202AA00ED
:100DE0003308AB003108031C310FAB022B08BF00E6
:100DF0002A08BE00C1013230C000E1217908BF00DD
:100E00007808BE007908C1007808C0000330C3002C
:100E1000FF30C200F6217908FA007808BE00790890
:100E2000BF001B227A08AF007908AE007808AD0039
:100E30007708AC000130CC00CD00D120343003174E
:100E40008D0000308F00031009300313BE003822DC
:100E5000893084002F08C1002E08C0002D08BF0073
:100E60002C08BE000230C200C822393003178D00A2
:100E700000308F00031404300313BE003822BF017A
:100E80003730BE00222C7908BF007808BE00582DEC
:100E90007A08BD007908BC007808BB007708BA0062
:100EA0003D08C1003C08C0003B08BF003A08BE0036
:100EB0002F08C5002E08C4002D08C3002C08C2004E
:100EC0007F2D0318652F031D6E2F83168511831246
:100ED00085158316051183120515762F8316851146
:100EE000831285118316051183120511252E012EFB
:020EF00063009D
:04400E00F12CFF3F53
:00000001FF
;PIC16F887
;CRC=E3D0  CREATED="20-dic-19 16:14"
